{
  "contractName": "PBridge",
  "abi": [
    {
      "inputs": [
        {
          "internalType": "address[]",
          "name": "_managers",
          "type": "address[]"
        }
      ],
      "stateMutability": "nonpayable",
      "type": "constructor"
    },
    {
      "anonymous": false,
      "inputs": [
        {
          "indexed": false,
          "internalType": "address",
          "name": "from",
          "type": "address"
        },
        {
          "indexed": false,
          "internalType": "string",
          "name": "to",
          "type": "string"
        },
        {
          "indexed": false,
          "internalType": "uint256",
          "name": "amount",
          "type": "uint256"
        },
        {
          "indexed": false,
          "internalType": "address",
          "name": "ERC20",
          "type": "address"
        }
      ],
      "name": "CrossOutFunds",
      "type": "event"
    },
    {
      "anonymous": false,
      "inputs": [
        {
          "indexed": false,
          "internalType": "address",
          "name": "from",
          "type": "address"
        },
        {
          "indexed": false,
          "internalType": "uint256",
          "name": "amount",
          "type": "uint256"
        }
      ],
      "name": "DepositFunds",
      "type": "event"
    },
    {
      "anonymous": false,
      "inputs": [
        {
          "indexed": false,
          "internalType": "address",
          "name": "to",
          "type": "address"
        },
        {
          "indexed": false,
          "internalType": "uint256",
          "name": "amount",
          "type": "uint256"
        }
      ],
      "name": "TransferFunds",
      "type": "event"
    },
    {
      "anonymous": false,
      "inputs": [
        {
          "indexed": false,
          "internalType": "string",
          "name": "txKey",
          "type": "string"
        }
      ],
      "name": "TxManagerChangeCompleted",
      "type": "event"
    },
    {
      "anonymous": false,
      "inputs": [
        {
          "indexed": false,
          "internalType": "string",
          "name": "txKey",
          "type": "string"
        }
      ],
      "name": "TxUpgradeCompleted",
      "type": "event"
    },
    {
      "anonymous": false,
      "inputs": [
        {
          "indexed": false,
          "internalType": "string",
          "name": "txKey",
          "type": "string"
        }
      ],
      "name": "TxWithdrawCompleted",
      "type": "event"
    },
    {
      "stateMutability": "payable",
      "type": "fallback",
      "payable": true
    },
    {
      "inputs": [],
      "name": "current_min_signatures",
      "outputs": [
        {
          "internalType": "uint8",
          "name": "",
          "type": "uint8"
        }
      ],
      "stateMutability": "view",
      "type": "function",
      "constant": true
    },
    {
      "inputs": [],
      "name": "max_managers",
      "outputs": [
        {
          "internalType": "uint256",
          "name": "",
          "type": "uint256"
        }
      ],
      "stateMutability": "view",
      "type": "function",
      "constant": true
    },
    {
      "inputs": [],
      "name": "min_managers",
      "outputs": [
        {
          "internalType": "uint256",
          "name": "",
          "type": "uint256"
        }
      ],
      "stateMutability": "view",
      "type": "function",
      "constant": true
    },
    {
      "inputs": [],
      "name": "owner",
      "outputs": [
        {
          "internalType": "address",
          "name": "",
          "type": "address"
        }
      ],
      "stateMutability": "view",
      "type": "function",
      "constant": true
    },
    {
      "inputs": [],
      "name": "rate",
      "outputs": [
        {
          "internalType": "uint256",
          "name": "",
          "type": "uint256"
        }
      ],
      "stateMutability": "view",
      "type": "function",
      "constant": true
    },
    {
      "inputs": [],
      "name": "signatureLength",
      "outputs": [
        {
          "internalType": "uint256",
          "name": "",
          "type": "uint256"
        }
      ],
      "stateMutability": "view",
      "type": "function",
      "constant": true
    },
    {
      "inputs": [],
      "name": "upgrade",
      "outputs": [
        {
          "internalType": "bool",
          "name": "",
          "type": "bool"
        }
      ],
      "stateMutability": "view",
      "type": "function",
      "constant": true
    },
    {
      "inputs": [],
      "name": "upgradeContractAddress",
      "outputs": [
        {
          "internalType": "address",
          "name": "",
          "type": "address"
        }
      ],
      "stateMutability": "view",
      "type": "function",
      "constant": true
    },
    {
      "stateMutability": "payable",
      "type": "receive",
      "payable": true
    },
    {
      "inputs": [
        {
          "internalType": "string",
          "name": "txKey",
          "type": "string"
        },
        {
          "internalType": "address payable",
          "name": "to",
          "type": "address"
        },
        {
          "internalType": "uint256",
          "name": "amount",
          "type": "uint256"
        },
        {
          "internalType": "bool",
          "name": "isERC20",
          "type": "bool"
        },
        {
          "internalType": "address",
          "name": "ERC20",
          "type": "address"
        },
        {
          "internalType": "bytes",
          "name": "signatures",
          "type": "bytes"
        }
      ],
      "name": "createOrSignWithdraw",
      "outputs": [],
      "stateMutability": "nonpayable",
      "type": "function"
    },
    {
      "inputs": [
        {
          "internalType": "string",
          "name": "txKey",
          "type": "string"
        },
        {
          "internalType": "address[]",
          "name": "adds",
          "type": "address[]"
        },
        {
          "internalType": "address[]",
          "name": "removes",
          "type": "address[]"
        },
        {
          "internalType": "uint8",
          "name": "count",
          "type": "uint8"
        },
        {
          "internalType": "bytes",
          "name": "signatures",
          "type": "bytes"
        }
      ],
      "name": "createOrSignManagerChange",
      "outputs": [],
      "stateMutability": "nonpayable",
      "type": "function"
    },
    {
      "inputs": [
        {
          "internalType": "string",
          "name": "txKey",
          "type": "string"
        },
        {
          "internalType": "address",
          "name": "upgradeContract",
          "type": "address"
        },
        {
          "internalType": "bytes",
          "name": "signatures",
          "type": "bytes"
        }
      ],
      "name": "createOrSignUpgrade",
      "outputs": [],
      "stateMutability": "nonpayable",
      "type": "function"
    },
    {
      "inputs": [],
      "name": "closeUpgrade",
      "outputs": [],
      "stateMutability": "nonpayable",
      "type": "function"
    },
    {
      "inputs": [],
      "name": "upgradeContractS1",
      "outputs": [],
      "stateMutability": "nonpayable",
      "type": "function"
    },
    {
      "inputs": [
        {
          "internalType": "address",
          "name": "ERC20",
          "type": "address"
        }
      ],
      "name": "upgradeContractS2",
      "outputs": [],
      "stateMutability": "nonpayable",
      "type": "function"
    },
    {
      "inputs": [
        {
          "internalType": "address",
          "name": "ERC20",
          "type": "address"
        }
      ],
      "name": "isMinterERC20",
      "outputs": [
        {
          "internalType": "bool",
          "name": "",
          "type": "bool"
        }
      ],
      "stateMutability": "view",
      "type": "function",
      "constant": true
    },
    {
      "inputs": [
        {
          "internalType": "address",
          "name": "ERC20",
          "type": "address"
        }
      ],
      "name": "registerMinterERC20",
      "outputs": [],
      "stateMutability": "nonpayable",
      "type": "function"
    },
    {
      "inputs": [
        {
          "internalType": "address",
          "name": "ERC20",
          "type": "address"
        }
      ],
      "name": "unregisterMinterERC20",
      "outputs": [],
      "stateMutability": "nonpayable",
      "type": "function"
    },
    {
      "inputs": [
        {
          "internalType": "string",
          "name": "to",
          "type": "string"
        },
        {
          "internalType": "uint256",
          "name": "amount",
          "type": "uint256"
        },
        {
          "internalType": "address",
          "name": "ERC20",
          "type": "address"
        }
      ],
      "name": "crossOut",
      "outputs": [
        {
          "internalType": "bool",
          "name": "",
          "type": "bool"
        }
      ],
      "stateMutability": "payable",
      "type": "function",
      "payable": true
    },
    {
      "inputs": [
        {
          "internalType": "string",
          "name": "txKey",
          "type": "string"
        }
      ],
      "name": "isCompletedTx",
      "outputs": [
        {
          "internalType": "bool",
          "name": "",
          "type": "bool"
        }
      ],
      "stateMutability": "view",
      "type": "function",
      "constant": true
    },
    {
      "inputs": [
        {
          "internalType": "address",
          "name": "_manager",
          "type": "address"
        }
      ],
      "name": "ifManager",
      "outputs": [
        {
          "internalType": "bool",
          "name": "",
          "type": "bool"
        }
      ],
      "stateMutability": "view",
      "type": "function",
      "constant": true
    },
    {
      "inputs": [],
      "name": "allManagers",
      "outputs": [
        {
          "internalType": "address[]",
          "name": "",
          "type": "address[]"
        }
      ],
      "stateMutability": "view",
      "type": "function",
      "constant": true
    }
  ],
  "bytecode": "0x608060405260008060006101000a81548160ff02191690831515021790555060008060016101000a81548173ffffffffffffffffffffffffffffffffffffffff021916908373ffffffffffffffffffffffffffffffffffffffff160217905550600f6001556003600255604260035560416004553480156200008057600080fd5b506040516200682c3803806200682c8339818101604052810190620000a69190620006ed565b60015481511115620000ef576040517f08c379a0000000000000000000000000000000000000000000000000000000008152600401620000e690620008f0565b60405180910390fd5b6002548151101562000138576040517f08c379a00000000000000000000000000000000000000000000000000000000081526004016200012f90620008ac565b60405180910390fd5b33600560016101000a81548173ffffffffffffffffffffffffffffffffffffffff021916908373ffffffffffffffffffffffffffffffffffffffff16021790555080600990805190602001906200019192919062000586565b5060005b6009805490508160ff161015620004095760016008600060098460ff1681548110620001ea577f4e487b7100000000000000000000000000000000000000000000000000000000600052603260045260246000fd5b9060005260206000200160009054906101000a900473ffffffffffffffffffffffffffffffffffffffff1673ffffffffffffffffffffffffffffffffffffffff1673ffffffffffffffffffffffffffffffffffffffff16815260200190815260200160002060006101000a81548160ff021916908360ff16021790555060016006600060098460ff1681548110620002ab577f4e487b7100000000000000000000000000000000000000000000000000000000600052603260045260246000fd5b9060005260206000200160009054906101000a900473ffffffffffffffffffffffffffffffffffffffff1673ffffffffffffffffffffffffffffffffffffffff1673ffffffffffffffffffffffffffffffffffffffff16815260200190815260200160002060006101000a81548160ff021916908360ff160217905550600760098260ff168154811062000368577f4e487b7100000000000000000000000000000000000000000000000000000000600052603260045260246000fd5b9060005260206000200160009054906101000a900473ffffffffffffffffffffffffffffffffffffffff169080600181540180825580915050600190039060005260206000200160009091909190916101000a81548173ffffffffffffffffffffffffffffffffffffffff021916908373ffffffffffffffffffffffffffffffffffffffff1602179055508080620004009062000b24565b91505062000195565b50600060086000600560019054906101000a900473ffffffffffffffffffffffffffffffffffffffff1673ffffffffffffffffffffffffffffffffffffffff1673ffffffffffffffffffffffffffffffffffffffff16815260200190815260200160002060009054906101000a900460ff1660ff1614620004c1576040517f08c379a0000000000000000000000000000000000000000000000000000000008152600401620004b89062000912565b60405180910390fd5b620004d7600980549050620004f860201b60201c565b600560006101000a81548160ff021916908360ff1602179055505062000bfa565b60008082116200053f576040517f08c379a00000000000000000000000000000000000000000000000000000000081526004016200053690620008ce565b60405180910390fd5b6000600160648460035462000555919062000a3d565b620005619190620009a8565b6200056d919062000a9e565b90506064816200057e919062000a05565b915050919050565b82805482825590600052602060002090810192821562000602579160200282015b82811115620006015782518260006101000a81548173ffffffffffffffffffffffffffffffffffffffff021916908373ffffffffffffffffffffffffffffffffffffffff16021790555091602001919060010190620005a7565b5b50905062000611919062000615565b5090565b5b808211156200063057600081600090555060010162000616565b5090565b60006200064b620006458462000968565b62000934565b905080838252602082019050828560208602820111156200066b57600080fd5b60005b858110156200069f5781620006848882620006a9565b8452602084019350602083019250506001810190506200066e565b5050509392505050565b600081519050620006ba8162000be0565b92915050565b600082601f830112620006d257600080fd5b8151620006e484826020860162000634565b91505092915050565b6000602082840312156200070057600080fd5b600082015167ffffffffffffffff8111156200071b57600080fd5b6200072984828501620006c0565b91505092915050565b60006200074160278362000997565b91507f4e6f74207265616368696e6720746865206d696e206e756d626572206f66206d60008301527f616e6167657273000000000000000000000000000000000000000000000000006020830152604082019050919050565b6000620007a960148362000997565b91507f4d616e616765722043616e277420656d7074792e0000000000000000000000006000830152602082019050919050565b6000620007eb60278362000997565b91507f457863656564656420746865206d6178696d756d206e756d626572206f66206d60008301527f616e6167657273000000000000000000000000000000000000000000000000006020830152604082019050919050565b60006200085360268362000997565b91507f436f6e74726163742063726561746f722063616e6e6f7420616374206173206d60008301527f616e6167657200000000000000000000000000000000000000000000000000006020830152604082019050919050565b60006020820190508181036000830152620008c78162000732565b9050919050565b60006020820190508181036000830152620008e9816200079a565b9050919050565b600060208201905081810360008301526200090b81620007dc565b9050919050565b600060208201905081810360008301526200092d8162000844565b9050919050565b6000604051905081810181811067ffffffffffffffff821117156200095e576200095d62000bb1565b5b8060405250919050565b600067ffffffffffffffff82111562000986576200098562000bb1565b5b602082029050602081019050919050565b600082825260208201905092915050565b6000620009b58262000b0d565b9150620009c28362000b0d565b9250827fffffffffffffffffffffffffffffffffffffffffffffffffffffffffffffffff03821115620009fa57620009f962000b53565b5b828201905092915050565b600062000a128262000b0d565b915062000a1f8362000b0d565b92508262000a325762000a3162000b82565b5b828204905092915050565b600062000a4a8262000b0d565b915062000a578362000b0d565b9250817fffffffffffffffffffffffffffffffffffffffffffffffffffffffffffffffff048311821515161562000a935762000a9262000b53565b5b828202905092915050565b600062000aab8262000b0d565b915062000ab88362000b0d565b92508282101562000ace5762000acd62000b53565b5b828203905092915050565b600062000ae68262000aed565b9050919050565b600073ffffffffffffffffffffffffffffffffffffffff82169050919050565b6000819050919050565b600060ff82169050919050565b600062000b318262000b17565b915060ff82141562000b485762000b4762000b53565b5b600182019050919050565b7f4e487b7100000000000000000000000000000000000000000000000000000000600052601160045260246000fd5b7f4e487b7100000000000000000000000000000000000000000000000000000000600052601260045260246000fd5b7f4e487b7100000000000000000000000000000000000000000000000000000000600052604160045260246000fd5b62000beb8162000ad9565b811462000bf757600080fd5b50565b615c228062000c0a6000396000f3fe60806040526004361061012d5760003560e01c806375173b70116100ab578063ab6c2b101161006f578063ab6c2b1014610411578063ad4b61a81461043a578063d4cacbaa14610465578063d55ec6971461047c578063e079cee9146104a7578063f7f2ff74146104d25761016d565b806375173b70146103185780638da5cb5b146103555780639c30b35e146103805780639dcdc978146103ab578063a5e399b3146103d45761016d565b806330b2d84d116100f257806330b2d84d1461023557806334774b7114610260578063408e8b7a146102895780635bda3fcf146102b25780636a7142e1146102db5761016d565b80627192261461016f5780630889d1f0146101985780631b9a9323146101c85780631dda9c05146101f35780632c4e722e1461020a5761016d565b3661016d577fd241e73300212f6df233a8e6d3146b88a9d4964e06621d54b5ff6afeba7b1b883334604051610163929190615054565b60405180910390a1005b005b34801561017b57600080fd5b5061019660048036038101906101919190613d2d565b6104fd565b005b6101b260048036038101906101ad9190613e04565b610806565b6040516101bf919061509f565b60405180910390f35b3480156101d457600080fd5b506101dd610c0c565b6040516101ea9190615641565b60405180910390f35b3480156101ff57600080fd5b50610208610c12565b005b34801561021657600080fd5b5061021f610dec565b60405161022c9190615641565b60405180910390f35b34801561024157600080fd5b5061024a610df2565b6040516102579190614f64565b60405180910390f35b34801561026c57600080fd5b5061028760048036038101906102829190613b62565b610e18565b005b34801561029557600080fd5b506102b060048036038101906102ab9190613cae565b61101a565b005b3480156102be57600080fd5b506102d960048036038101906102d49190613b62565b611390565b005b3480156102e757600080fd5b5061030260048036038101906102fd9190613b62565b611796565b60405161030f919061509f565b60405180910390f35b34801561032457600080fd5b5061033f600480360381019061033a9190613b62565b6117f1565b60405161034c919061509f565b60405180910390f35b34801561036157600080fd5b5061036a61184d565b6040516103779190614f64565b60405180910390f35b34801561038c57600080fd5b50610395611873565b6040516103a2919061507d565b60405180910390f35b3480156103b757600080fd5b506103d260048036038101906103cd9190613b62565b611901565b005b3480156103e057600080fd5b506103fb60048036038101906103f69190613bb4565b611a2b565b604051610408919061509f565b60405180910390f35b34801561041d57600080fd5b5061043860048036038101906104339190613bf5565b611a65565b005b34801561044657600080fd5b5061044f611ec4565b60405161045c9190615641565b60405180910390f35b34801561047157600080fd5b5061047a611eca565b005b34801561048857600080fd5b50610491611fc3565b60405161049e919061509f565b60405180910390f35b3480156104b357600080fd5b506104bc611fd4565b6040516104c9919061565c565b60405180910390f35b3480156104de57600080fd5b506104e7611fe7565b6040516104f49190615641565b60405180910390f35b6001600860003373ffffffffffffffffffffffffffffffffffffffff1673ffffffffffffffffffffffffffffffffffffffff16815260200190815260200160002060009054906101000a900460ff1660ff161461058f576040517f08c379a0000000000000000000000000000000000000000000000000000000008152600401610586906152a1565b60405180910390fd5b60408551146105d3576040517f08c379a00000000000000000000000000000000000000000000000000000000081526004016105ca90615521565b60405180910390fd5b6000845111806105e4575060008351115b610623576040517f08c379a000000000000000000000000000000000000000000000000000000000815260040161061a906154c1565b60405180910390fd5b6000600b866040516106359190614e55565b908152602001604051809103902060009054906101000a900460ff1660ff1614610694576040517f08c379a000000000000000000000000000000000000000000000000000000000815260040161068b90615201565b60405180910390fd5b61069e8484611fed565b60008585848660026040516020016106ba959493929190614f11565b6040516020818303038152906040528051906020012090506000600a600083815260200190815260200160002060009054906101000a900460ff1660ff1614610738576040517f08c379a000000000000000000000000000000000000000000000000000000000815260040161072f90615181565b60405180910390fd5b610742818361244c565b610781576040517f08c379a0000000000000000000000000000000000000000000000000000000008152600401610778906154a1565b60405180910390fd5b61078a846124c1565b61079385612843565b6107a16009805490506129d1565b600560006101000a81548160ff021916908360ff1602179055506107c786826001612a54565b7fac9b82db4e104d515319a481096bfd91a4f40ee10837d5a2c8d51b9a03dc48ae866040516107f691906150ff565b60405180910390a1505050505050565b6000803390506000841161084f576040517f08c379a000000000000000000000000000000000000000000000000000000000815260040161084690615341565b60405180910390fd5b600073ffffffffffffffffffffffffffffffffffffffff168373ffffffffffffffffffffffffffffffffffffffff1614610b8057600034146108c6576040517f08c379a00000000000000000000000000000000000000000000000000000000081526004016108bd90615261565b60405180910390fd5b6108e58373ffffffffffffffffffffffffffffffffffffffff16612abc565b610924576040517f08c379a000000000000000000000000000000000000000000000000000000000815260040161091b90615621565b60405180910390fd5b600083905060008173ffffffffffffffffffffffffffffffffffffffff1663dd62ed3e84306040518363ffffffff1660e01b8152600401610966929190614fa8565b60206040518083038186803b15801561097e57600080fd5b505afa158015610992573d6000803e3d6000fd5b505050506040513d601f19601f820116820180604052508101906109b69190613e6b565b9050858110156109fb576040517f08c379a00000000000000000000000000000000000000000000000000000000081526004016109f290615401565b60405180910390fd5b60008273ffffffffffffffffffffffffffffffffffffffff166370a08231856040518263ffffffff1660e01b8152600401610a369190614f64565b60206040518083038186803b158015610a4e57600080fd5b505afa158015610a62573d6000803e3d6000fd5b505050506040513d601f19601f82011682018060405250810190610a869190613e6b565b905086811015610acb576040517f08c379a0000000000000000000000000000000000000000000000000000000008152600401610ac290615481565b60405180910390fd5b610af88430898673ffffffffffffffffffffffffffffffffffffffff16612acf909392919063ffffffff16565b610b0186611796565b15610b785760008690508073ffffffffffffffffffffffffffffffffffffffff166342966c68896040518263ffffffff1660e01b8152600401610b449190615641565b600060405180830381600087803b158015610b5e57600080fd5b505af1158015610b72573d6000803e3d6000fd5b50505050505b505050610bc3565b833414610bc2576040517f08c379a0000000000000000000000000000000000000000000000000000000008152600401610bb9906154e1565b60405180910390fd5b5b7f5ddf9724d8fe5d9e12499be2867f93d41a582733dcd65f74a486ad7e3066714681868686604051610bf89493929190615008565b60405180910390a160019150509392505050565b60045481565b3373ffffffffffffffffffffffffffffffffffffffff16600560019054906101000a900473ffffffffffffffffffffffffffffffffffffffff1673ffffffffffffffffffffffffffffffffffffffff1614610ca2576040517f08c379a0000000000000000000000000000000000000000000000000000000008152600401610c9990615581565b60405180910390fd5b60008054906101000a900460ff16610cef576040517f08c379a0000000000000000000000000000000000000000000000000000000008152600401610ce6906153a1565b60405180910390fd5b600073ffffffffffffffffffffffffffffffffffffffff16600060019054906101000a900473ffffffffffffffffffffffffffffffffffffffff1673ffffffffffffffffffffffffffffffffffffffff161415610d81576040517f08c379a0000000000000000000000000000000000000000000000000000000008152600401610d7890615421565b60405180910390fd5b600060019054906101000a900473ffffffffffffffffffffffffffffffffffffffff1673ffffffffffffffffffffffffffffffffffffffff166108fc479081150290604051600060405180830381858888f19350505050158015610de9573d6000803e3d6000fd5b50565b60035481565b600060019054906101000a900473ffffffffffffffffffffffffffffffffffffffff1681565b3373ffffffffffffffffffffffffffffffffffffffff16600560019054906101000a900473ffffffffffffffffffffffffffffffffffffffff1673ffffffffffffffffffffffffffffffffffffffff1614610ea8576040517f08c379a0000000000000000000000000000000000000000000000000000000008152600401610e9f90615581565b60405180910390fd5b8073ffffffffffffffffffffffffffffffffffffffff163073ffffffffffffffffffffffffffffffffffffffff161415610f17576040517f08c379a0000000000000000000000000000000000000000000000000000000008152600401610f0e90615321565b60405180910390fd5b610f368173ffffffffffffffffffffffffffffffffffffffff16612abc565b610f75576040517f08c379a0000000000000000000000000000000000000000000000000000000008152600401610f6c90615621565b60405180910390fd5b610f7e81611796565b15610fbe576040517f08c379a0000000000000000000000000000000000000000000000000000000008152600401610fb590615141565b60405180910390fd5b6001600c60008373ffffffffffffffffffffffffffffffffffffffff1673ffffffffffffffffffffffffffffffffffffffff16815260200190815260200160002060006101000a81548160ff021916908360ff16021790555050565b6001600860003373ffffffffffffffffffffffffffffffffffffffff1673ffffffffffffffffffffffffffffffffffffffff16815260200190815260200160002060009054906101000a900460ff1660ff16146110ac576040517f08c379a00000000000000000000000000000000000000000000000000000000081526004016110a3906152a1565b60405180910390fd5b60408351146110f0576040517f08c379a00000000000000000000000000000000000000000000000000000000081526004016110e790615521565b60405180910390fd5b6000600b846040516111029190614e55565b908152602001604051809103902060009054906101000a900460ff1660ff1614611161576040517f08c379a000000000000000000000000000000000000000000000000000000000815260040161115890615201565b60405180910390fd5b60008054906101000a900460ff16156111af576040517f08c379a00000000000000000000000000000000000000000000000000000000081526004016111a690615501565b60405180910390fd5b6111ce8273ffffffffffffffffffffffffffffffffffffffff16612abc565b61120d576040517f08c379a000000000000000000000000000000000000000000000000000000000815260040161120490615621565b60405180910390fd5b60008383600260405160200161122593929190614ed8565b6040516020818303038152906040528051906020012090506000600a600083815260200190815260200160002060009054906101000a900460ff1660ff16146112a3576040517f08c379a000000000000000000000000000000000000000000000000000000000815260040161129a90615181565b60405180910390fd5b6112ad818361244c565b6112ec576040517f08c379a00000000000000000000000000000000000000000000000000000000081526004016112e3906154a1565b60405180910390fd5b60016000806101000a81548160ff02191690831515021790555082600060016101000a81548173ffffffffffffffffffffffffffffffffffffffff021916908373ffffffffffffffffffffffffffffffffffffffff16021790555061135384826001612a54565b7f5e06c4b22547d430736ce834764dbfee08f1c4cf7ae3d53178aa56effa593ed08460405161138291906150ff565b60405180910390a150505050565b3373ffffffffffffffffffffffffffffffffffffffff16600560019054906101000a900473ffffffffffffffffffffffffffffffffffffffff1673ffffffffffffffffffffffffffffffffffffffff1614611420576040517f08c379a000000000000000000000000000000000000000000000000000000000815260040161141790615581565b60405180910390fd5b60008054906101000a900460ff1661146d576040517f08c379a0000000000000000000000000000000000000000000000000000000008152600401611464906153a1565b60405180910390fd5b600073ffffffffffffffffffffffffffffffffffffffff16600060019054906101000a900473ffffffffffffffffffffffffffffffffffffffff1673ffffffffffffffffffffffffffffffffffffffff1614156114ff576040517f08c379a00000000000000000000000000000000000000000000000000000000081526004016114f690615421565b60405180910390fd5b8073ffffffffffffffffffffffffffffffffffffffff163073ffffffffffffffffffffffffffffffffffffffff16141561156e576040517f08c379a000000000000000000000000000000000000000000000000000000000815260040161156590615321565b60405180910390fd5b61158d8173ffffffffffffffffffffffffffffffffffffffff16612abc565b6115cc576040517f08c379a00000000000000000000000000000000000000000000000000000000081526004016115c390615621565b60405180910390fd5b600081905060008173ffffffffffffffffffffffffffffffffffffffff166370a08231306040518263ffffffff1660e01b815260040161160c9190614f64565b60206040518083038186803b15801561162457600080fd5b505afa158015611638573d6000803e3d6000fd5b505050506040513d601f19601f8201168201806040525081019061165c9190613e6b565b905060008110156116a2576040517f08c379a000000000000000000000000000000000000000000000000000000000815260040161169990615221565b60405180910390fd5b6116ef600060019054906101000a900473ffffffffffffffffffffffffffffffffffffffff16828473ffffffffffffffffffffffffffffffffffffffff16612b589092919063ffffffff16565b6116f883611796565b156117915760008390508073ffffffffffffffffffffffffffffffffffffffff166307f1af44600060019054906101000a900473ffffffffffffffffffffffffffffffffffffffff166040518263ffffffff1660e01b815260040161175d9190614f64565b600060405180830381600087803b15801561177757600080fd5b505af115801561178b573d6000803e3d6000fd5b50505050505b505050565b600080600c60008473ffffffffffffffffffffffffffffffffffffffff1673ffffffffffffffffffffffffffffffffffffffff16815260200190815260200160002060009054906101000a900460ff1660ff16119050919050565b60006001600860008473ffffffffffffffffffffffffffffffffffffffff1673ffffffffffffffffffffffffffffffffffffffff16815260200190815260200160002060009054906101000a900460ff1660ff16149050919050565b600560019054906101000a900473ffffffffffffffffffffffffffffffffffffffff1681565b606060098054806020026020016040519081016040528092919081815260200182805480156118f757602002820191906000526020600020905b8160009054906101000a900473ffffffffffffffffffffffffffffffffffffffff1673ffffffffffffffffffffffffffffffffffffffff16815260200190600101908083116118ad575b5050505050905090565b3373ffffffffffffffffffffffffffffffffffffffff16600560019054906101000a900473ffffffffffffffffffffffffffffffffffffffff1673ffffffffffffffffffffffffffffffffffffffff1614611991576040517f08c379a000000000000000000000000000000000000000000000000000000000815260040161198890615581565b60405180910390fd5b61199a81611796565b6119d9576040517f08c379a00000000000000000000000000000000000000000000000000000000081526004016119d090615461565b60405180910390fd5b600c60008273ffffffffffffffffffffffffffffffffffffffff1673ffffffffffffffffffffffffffffffffffffffff16815260200190815260200160002060006101000a81549060ff021916905550565b600080600b83604051611a3e9190614e55565b908152602001604051809103902060009054906101000a900460ff1660ff16119050919050565b6001600860003373ffffffffffffffffffffffffffffffffffffffff1673ffffffffffffffffffffffffffffffffffffffff16815260200190815260200160002060009054906101000a900460ff1660ff1614611af7576040517f08c379a0000000000000000000000000000000000000000000000000000000008152600401611aee906152a1565b60405180910390fd5b6040865114611b3b576040517f08c379a0000000000000000000000000000000000000000000000000000000008152600401611b3290615521565b60405180910390fd5b600073ffffffffffffffffffffffffffffffffffffffff168573ffffffffffffffffffffffffffffffffffffffff161415611bab576040517f08c379a0000000000000000000000000000000000000000000000000000000008152600401611ba290615161565b60405180910390fd5b60008411611bee576040517f08c379a0000000000000000000000000000000000000000000000000000000008152600401611be5906153e1565b60405180910390fd5b6000600b87604051611c009190614e55565b908152602001604051809103902060009054906101000a900460ff1660ff1614611c5f576040517f08c379a0000000000000000000000000000000000000000000000000000000008152600401611c5690615201565b60405180910390fd5b8215611c7557611c70828686612bde565b611cb9565b83471015611cb8576040517f08c379a0000000000000000000000000000000000000000000000000000000008152600401611caf906152c1565b60405180910390fd5b5b600086868686866002604051602001611cd796959493929190614e6c565b6040516020818303038152906040528051906020012090506000600a600083815260200190815260200160002060009054906101000a900460ff1660ff1614611d55576040517f08c379a0000000000000000000000000000000000000000000000000000000008152600401611d4c90615181565b60405180910390fd5b611d5f818361244c565b611d9e576040517f08c379a0000000000000000000000000000000000000000000000000000000008152600401611d95906154a1565b60405180910390fd5b8315611db457611daf838787612e0b565b611e78565b84471015611df7576040517f08c379a0000000000000000000000000000000000000000000000000000000008152600401611dee906152c1565b60405180910390fd5b8573ffffffffffffffffffffffffffffffffffffffff166108fc869081150290604051600060405180830381858888f19350505050158015611e3d573d6000803e3d6000fd5b507fc95f8b91b103304386b955ef73fadac189f8ad66b33369b6c34a17a60db7bd0a8686604051611e6f929190614f7f565b60405180910390a15b611e8487826001612a54565b7f8ed8b1f0dd3babfdf1477ba2b27a5b0d2f1c9148448fd22cf2c75e658293c7b187604051611eb391906150ff565b60405180910390a150505050505050565b60025481565b3373ffffffffffffffffffffffffffffffffffffffff16600560019054906101000a900473ffffffffffffffffffffffffffffffffffffffff1673ffffffffffffffffffffffffffffffffffffffff1614611f5a576040517f08c379a0000000000000000000000000000000000000000000000000000000008152600401611f5190615581565b60405180910390fd5b60008054906101000a900460ff16611fa7576040517f08c379a0000000000000000000000000000000000000000000000000000000008152600401611f9e906153a1565b60405180910390fd5b60008060006101000a81548160ff021916908315150217905550565b60008054906101000a900460ff1681565b600560009054906101000a900460ff1681565b60015481565b60008251905060005b81811015612159576000848281518110612039577f4e487b7100000000000000000000000000000000000000000000000000000000600052603260045260246000fd5b60200260200101519050600073ffffffffffffffffffffffffffffffffffffffff168173ffffffffffffffffffffffffffffffffffffffff1614156120b3576040517f08c379a00000000000000000000000000000000000000000000000000000000081526004016120aa90615301565b60405180910390fd5b6000600860008373ffffffffffffffffffffffffffffffffffffffff1673ffffffffffffffffffffffffffffffffffffffff16815260200190815260200160002060009054906101000a900460ff1660ff1614612145576040517f08c379a000000000000000000000000000000000000000000000000000000000815260040161213c90615441565b60405180910390fd5b508080612151906159ea565b915050611ff6565b5061216383612f99565b6121a2576040517f08c379a0000000000000000000000000000000000000000000000000000000008152600401612199906151a1565b60405180910390fd5b6121ce600560019054906101000a900473ffffffffffffffffffffffffffffffffffffffff168461313a565b61220d576040517f08c379a000000000000000000000000000000000000000000000000000000000815260040161220490615601565b60405180910390fd5b61221682612f99565b612255576040517f08c379a000000000000000000000000000000000000000000000000000000000815260040161224c906155a1565b60405180910390fd5b60008251905060005b818110156123e35760008482815181106122a1577f4e487b7100000000000000000000000000000000000000000000000000000000600052603260045260246000fd5b602002602001015190506000600660008373ffffffffffffffffffffffffffffffffffffffff1673ffffffffffffffffffffffffffffffffffffffff16815260200190815260200160002060009054906101000a900460ff1660ff161461233d576040517f08c379a0000000000000000000000000000000000000000000000000000000008152600401612334906155c1565b60405180910390fd5b6001600860008373ffffffffffffffffffffffffffffffffffffffff1673ffffffffffffffffffffffffffffffffffffffff16815260200190815260200160002060009054906101000a900460ff1660ff16146123cf576040517f08c379a00000000000000000000000000000000000000000000000000000000081526004016123c6906153c1565b60405180910390fd5b5080806123db906159ea565b91505061225e565b50600154835185516009805490506123fb91906157b5565b61240591906158cd565b1115612446576040517f08c379a000000000000000000000000000000000000000000000000000000000815260040161243d90615381565b60405180910390fd5b50505050565b60006103cf82511115612494576040517f08c379a000000000000000000000000000000000000000000000000000000000815260040161248b906152e1565b60405180910390fd5b60006124a08484613225565b9050600560009054906101000a900460ff1660ff1681101591505092915050565b6000815114156124d057612840565b60005b815181101561257e5760086000838381518110612519577f4e487b7100000000000000000000000000000000000000000000000000000000600052603260045260246000fd5b602002602001015173ffffffffffffffffffffffffffffffffffffffff1673ffffffffffffffffffffffffffffffffffffffff16815260200190815260200160002060006101000a81549060ff02191690558080612576906159ea565b9150506124d3565b5060005b6009805490508110156126c657600060086000600984815481106125cf577f4e487b7100000000000000000000000000000000000000000000000000000000600052603260045260246000fd5b9060005260206000200160009054906101000a900473ffffffffffffffffffffffffffffffffffffffff1673ffffffffffffffffffffffffffffffffffffffff1673ffffffffffffffffffffffffffffffffffffffff16815260200190815260200160002060009054906101000a900460ff1660ff1614156126b35760098181548110612685577f4e487b7100000000000000000000000000000000000000000000000000000000600052603260045260246000fd5b9060005260206000200160006101000a81549073ffffffffffffffffffffffffffffffffffffffff02191690555b80806126be906159ea565b915050612582565b5060006010905060005b60098054905081101561283d57600060098281548110612719577f4e487b7100000000000000000000000000000000000000000000000000000000600052603260045260246000fd5b9060005260206000200160009054906101000a900473ffffffffffffffffffffffffffffffffffffffff169050600073ffffffffffffffffffffffffffffffffffffffff168173ffffffffffffffffffffffffffffffffffffffff16141561278e576010831415612788578192505b5061282a565b601083146128285780600984815481106127d1577f4e487b7100000000000000000000000000000000000000000000000000000000600052603260045260246000fd5b9060005260206000200160006101000a81548173ffffffffffffffffffffffffffffffffffffffff021916908373ffffffffffffffffffffffffffffffffffffffff1602179055508280612824906159ea565b9350505b505b8080612835906159ea565b9150506126d0565b50505b50565b600081511415612852576129ce565b60005b81518110156129cc576000828281518110612899577f4e487b7100000000000000000000000000000000000000000000000000000000600052603260045260246000fd5b602002602001015190506000600860008373ffffffffffffffffffffffffffffffffffffffff1673ffffffffffffffffffffffffffffffffffffffff16815260200190815260200160002060009054906101000a900460ff1660ff1614156129b8576001600860008373ffffffffffffffffffffffffffffffffffffffff1673ffffffffffffffffffffffffffffffffffffffff16815260200190815260200160002060006101000a81548160ff021916908360ff1602179055506009819080600181540180825580915050600190039060005260206000200160009091909190916101000a81548173ffffffffffffffffffffffffffffffffffffffff021916908373ffffffffffffffffffffffffffffffffffffffff1602179055505b5080806129c4906159ea565b915050612855565b505b50565b6000808211612a15576040517f08c379a0000000000000000000000000000000000000000000000000000000008152600401612a0c906151c1565b60405180910390fd5b60006001606484600354612a299190615873565b612a3391906157b5565b612a3d91906158cd565b9050606481612a4c9190615842565b915050919050565b80600b84604051612a659190614e55565b908152602001604051809103902060006101000a81548160ff021916908360ff16021790555080600a600084815260200190815260200160002060006101000a81548160ff021916908360ff160217905550505050565b600080823b905060008111915050919050565b612b52846323b872dd60e01b858585604051602401612af093929190614fd1565b604051602081830303815290604052907bffffffffffffffffffffffffffffffffffffffffffffffffffffffff19166020820180517bffffffffffffffffffffffffffffffffffffffffffffffffffffffff83818316178352505050506134d0565b50505050565b612bd98363a9059cbb60e01b8484604051602401612b77929190615054565b604051602081830303815290604052907bffffffffffffffffffffffffffffffffffffffffffffffffffffffff19166020820180517bffffffffffffffffffffffffffffffffffffffffffffffffffffffff83818316178352505050506134d0565b505050565b600073ffffffffffffffffffffffffffffffffffffffff168273ffffffffffffffffffffffffffffffffffffffff161415612c4e576040517f08c379a0000000000000000000000000000000000000000000000000000000008152600401612c4590615121565b60405180910390fd5b8273ffffffffffffffffffffffffffffffffffffffff163073ffffffffffffffffffffffffffffffffffffffff161415612cbd576040517f08c379a0000000000000000000000000000000000000000000000000000000008152600401612cb490615321565b60405180910390fd5b612cdc8373ffffffffffffffffffffffffffffffffffffffff16612abc565b612d1b576040517f08c379a0000000000000000000000000000000000000000000000000000000008152600401612d1290615621565b60405180910390fd5b612d2483611796565b15612d2e57612e06565b600083905060008173ffffffffffffffffffffffffffffffffffffffff166370a08231306040518263ffffffff1660e01b8152600401612d6e9190614f64565b60206040518083038186803b158015612d8657600080fd5b505afa158015612d9a573d6000803e3d6000fd5b505050506040513d601f19601f82011682018060405250810190612dbe9190613e6b565b905082811015612e03576040517f08c379a0000000000000000000000000000000000000000000000000000000008152600401612dfa90615221565b60405180910390fd5b50505b505050565b612e1483611796565b15612e915760008390508073ffffffffffffffffffffffffffffffffffffffff166340c10f1984846040518363ffffffff1660e01b8152600401612e59929190615054565b600060405180830381600087803b158015612e7357600080fd5b505af1158015612e87573d6000803e3d6000fd5b5050505050612f94565b600083905060008173ffffffffffffffffffffffffffffffffffffffff166370a08231306040518263ffffffff1660e01b8152600401612ed19190614f64565b60206040518083038186803b158015612ee957600080fd5b505afa158015612efd573d6000803e3d6000fd5b505050506040513d601f19601f82011682018060405250810190612f219190613e6b565b905082811015612f66576040517f08c379a0000000000000000000000000000000000000000000000000000000008152600401612f5d90615221565b60405180910390fd5b612f9184848473ffffffffffffffffffffffffffffffffffffffff16612b589092919063ffffffff16565b50505b505050565b600080600090505b825181101561312f576000838281518110612fe5577f4e487b7100000000000000000000000000000000000000000000000000000000600052603260045260246000fd5b60200260200101519050600073ffffffffffffffffffffffffffffffffffffffff168173ffffffffffffffffffffffffffffffffffffffff16141561302a575061312f565b600060018361303991906157b5565b90505b845181101561311a576000858281518110613080577f4e487b7100000000000000000000000000000000000000000000000000000000600052603260045260246000fd5b60200260200101519050600073ffffffffffffffffffffffffffffffffffffffff168173ffffffffffffffffffffffffffffffffffffffff1614156130c5575061311a565b8073ffffffffffffffffffffffffffffffffffffffff168373ffffffffffffffffffffffffffffffffffffffff161415613106576000945050505050613135565b508080613112906159ea565b91505061303c565b50508080613127906159ea565b915050612fa1565b50600190505b919050565b60008060005b835181101561321857838181518110613182577f4e487b7100000000000000000000000000000000000000000000000000000000600052603260045260246000fd5b60200260200101519150600073ffffffffffffffffffffffffffffffffffffffff168273ffffffffffffffffffffffffffffffffffffffff1614156131c657613218565b8473ffffffffffffffffffffffffffffffffffffffff168273ffffffffffffffffffffffffffffffffffffffff1614156132055760009250505061321f565b8080613210906159ea565b915050613140565b5060019150505b92915050565b600080600090506000613244600454855161359790919063ffffffff16565b905060008167ffffffffffffffff811115613288577f4e487b7100000000000000000000000000000000000000000000000000000000600052604160045260246000fd5b6040519080825280602002602001820160405280156132b65781602001602082028036833780820191505090505b50905060008060005b8481101561346f5760006132e0846004548b6135ad9092919063ffffffff16565b905060006132ee8b836136cb565b9050600073ffffffffffffffffffffffffffffffffffffffff168173ffffffffffffffffffffffffffffffffffffffff161415613360576040517f08c379a000000000000000000000000000000000000000000000000000000000815260040161335790615361565b60405180910390fd5b6001600860008373ffffffffffffffffffffffffffffffffffffffff1673ffffffffffffffffffffffffffffffffffffffff16815260200190815260200160002060009054906101000a900460ff1660ff16141561344a5787806133c3906159ea565b985050808685806133d390615a33565b965060ff168151811061340f577f4e487b7100000000000000000000000000000000000000000000000000000000600052603260045260246000fd5b602002602001019073ffffffffffffffffffffffffffffffffffffffff16908173ffffffffffffffffffffffffffffffffffffffff16815250505b6004548561345891906157b5565b945050508080613467906159ea565b9150506132bf565b50600061347b84612f99565b905060609350806134c1576040517f08c379a00000000000000000000000000000000000000000000000000000000081526004016134b8906151e1565b60405180910390fd5b85965050505050505092915050565b6000613532826040518060400160405280602081526020017f5361666545524332303a206c6f772d6c6576656c2063616c6c206661696c65648152508573ffffffffffffffffffffffffffffffffffffffff166137d69092919063ffffffff16565b905060008151111561359257808060200190518101906135529190613b8b565b613591576040517f08c379a0000000000000000000000000000000000000000000000000000000008152600401613588906155e1565b60405180910390fd5b5b505050565b600081836135a59190615842565b905092915050565b606081601f836135bd91906157b5565b10156135fe576040517f08c379a00000000000000000000000000000000000000000000000000000000081526004016135f590615281565b60405180910390fd5b818361360a91906157b5565b8451101561364d576040517f08c379a000000000000000000000000000000000000000000000000000000000815260040161364490615561565b60405180910390fd5b606082156000811461366e57604051915060008252602082016040526136bf565b6040519150601f8416801560200281840101858101878315602002848b0101015b818310156136ac578051835260208301925060208101905061368f565b50868552601f19601f8301166040525050505b50809150509392505050565b6000806000806004548551146136e757600093505050506137d0565b6020850151925060408501519150606085015160001a90507f7fffffffffffffffffffffffffffffff5d576e7357a4501ddfe92f46681b20a08260001c111561373657600093505050506137d0565b601b8160ff16101561375257601b8161374f919061580b565b90505b601b8160ff161415801561376a5750601c8160ff1614155b1561377b57600093505050506137d0565b6001868285856040516000815260200160405260405161379e94939291906150ba565b6020604051602081039080840390855afa1580156137c0573d6000803e3d6000fd5b5050506020604051035193505050505b92915050565b60606137e584846000856137ee565b90509392505050565b606082471015613833576040517f08c379a000000000000000000000000000000000000000000000000000000000815260040161382a90615241565b60405180910390fd5b61383c85612abc565b61387b576040517f08c379a000000000000000000000000000000000000000000000000000000000815260040161387290615541565b60405180910390fd5b6000808673ffffffffffffffffffffffffffffffffffffffff1685876040516138a49190614e3e565b60006040518083038185875af1925050503d80600081146138e1576040519150601f19603f3d011682016040523d82523d6000602084013e6138e6565b606091505b50915091506138f6828286613902565b92505050949350505050565b6060831561391257829050613962565b6000835111156139255782518084602001fd5b816040517f08c379a000000000000000000000000000000000000000000000000000000000815260040161395991906150ff565b60405180910390fd5b9392505050565b600061397c613977846156a8565b615677565b9050808382526020820190508285602086028201111561399b57600080fd5b60005b858110156139cb57816139b18882613a51565b84526020840193506020830192505060018101905061399e565b5050509392505050565b60006139e86139e3846156d4565b615677565b905082815260208101848484011115613a0057600080fd5b613a0b8482856159a8565b509392505050565b6000613a26613a2184615704565b615677565b905082815260208101848484011115613a3e57600080fd5b613a498482856159a8565b509392505050565b600081359050613a6081615b79565b92915050565b600081359050613a7581615b90565b92915050565b600082601f830112613a8c57600080fd5b8135613a9c848260208601613969565b91505092915050565b600081359050613ab481615ba7565b92915050565b600081519050613ac981615ba7565b92915050565b600082601f830112613ae057600080fd5b8135613af08482602086016139d5565b91505092915050565b600082601f830112613b0a57600080fd5b8135613b1a848260208601613a13565b91505092915050565b600081359050613b3281615bbe565b92915050565b600081519050613b4781615bbe565b92915050565b600081359050613b5c81615bd5565b92915050565b600060208284031215613b7457600080fd5b6000613b8284828501613a51565b91505092915050565b600060208284031215613b9d57600080fd5b6000613bab84828501613aba565b91505092915050565b600060208284031215613bc657600080fd5b600082013567ffffffffffffffff811115613be057600080fd5b613bec84828501613af9565b91505092915050565b60008060008060008060c08789031215613c0e57600080fd5b600087013567ffffffffffffffff811115613c2857600080fd5b613c3489828a01613af9565b9650506020613c4589828a01613a66565b9550506040613c5689828a01613b23565b9450506060613c6789828a01613aa5565b9350506080613c7889828a01613a51565b92505060a087013567ffffffffffffffff811115613c9557600080fd5b613ca189828a01613acf565b9150509295509295509295565b600080600060608486031215613cc357600080fd5b600084013567ffffffffffffffff811115613cdd57600080fd5b613ce986828701613af9565b9350506020613cfa86828701613a51565b925050604084013567ffffffffffffffff811115613d1757600080fd5b613d2386828701613acf565b9150509250925092565b600080600080600060a08688031215613d4557600080fd5b600086013567ffffffffffffffff811115613d5f57600080fd5b613d6b88828901613af9565b955050602086013567ffffffffffffffff811115613d8857600080fd5b613d9488828901613a7b565b945050604086013567ffffffffffffffff811115613db157600080fd5b613dbd88828901613a7b565b9350506060613dce88828901613b4d565b925050608086013567ffffffffffffffff811115613deb57600080fd5b613df788828901613acf565b9150509295509295909350565b600080600060608486031215613e1957600080fd5b600084013567ffffffffffffffff811115613e3357600080fd5b613e3f86828701613af9565b9350506020613e5086828701613b23565b9250506040613e6186828701613a51565b9150509250925092565b600060208284031215613e7d57600080fd5b6000613e8b84828501613b38565b91505092915050565b6000613ea08383613eea565b60208301905092915050565b6000613eb88383613f08565b60208301905092915050565b613ecd81615972565b82525050565b613ee4613edf82615913565b615a6f565b82525050565b613ef381615901565b82525050565b613f0281615901565b82525050565b613f1181615901565b82525050565b613f28613f2382615901565b615a5d565b82525050565b6000613f3982615744565b613f438185615772565b9350613f4e83615734565b8060005b83811015613f7f578151613f668882613e94565b9750613f7183615765565b925050600181019050613f52565b5085935050505092915050565b6000613f9782615744565b613fa18185615783565b9350613fac83615734565b8060005b83811015613fdd578151613fc48882613eac565b9750613fcf83615765565b925050600181019050613fb0565b5085935050505092915050565b613ff381615925565b82525050565b61400a61400582615925565b615a81565b82525050565b61401981615931565b82525050565b600061402a8261574f565b614034818561578e565b93506140448185602086016159b7565b80840191505092915050565b600061405b8261575a565b6140658185615799565b93506140758185602086016159b7565b61407e81615b4e565b840191505092915050565b60006140948261575a565b61409e81856157aa565b93506140ae8185602086016159b7565b80840191505092915050565b60006140c7602383615799565b91507f45524332303a207472616e7366657220746f20746865207a65726f206164647260008301527f65737300000000000000000000000000000000000000000000000000000000006020830152604082019050919050565b600061412d602883615799565b91507f5468697320616464726573732068617320616c7265616479206265656e20726560008301527f67697374657265640000000000000000000000000000000000000000000000006020830152604082019050919050565b6000614193602683615799565b91507f57697468647261773a207472616e7366657220746f20746865207a65726f206160008301527f64647265737300000000000000000000000000000000000000000000000000006020830152604082019050919050565b60006141f9601283615799565b91507f496e76616c6964207369676e61747572657300000000000000000000000000006000830152602082019050919050565b6000614239602c83615799565b91507f4475706c696361746520706172616d657465727320666f72207468652061646460008301527f7265737320746f206a6f696e00000000000000000000000000000000000000006020830152604082019050919050565b600061429f601483615799565b91507f4d616e616765722043616e277420656d7074792e0000000000000000000000006000830152602082019050919050565b60006142df601483615799565b91507f5369676e617475726573206475706c69636174650000000000000000000000006000830152602082019050919050565b600061431f601e83615799565b91507f5472616e73616374696f6e20686173206265656e20636f6d706c6574656400006000830152602082019050919050565b600061435f601a83615799565b91507f4e6f20656e6f7567682062616c616e6365206f6620746f6b656e0000000000006000830152602082019050919050565b600061439f602683615799565b91507f416464726573733a20696e73756666696369656e742062616c616e636520666f60008301527f722063616c6c00000000000000000000000000000000000000000000000000006020830152604082019050919050565b6000614405602483615799565b91507f45524332303a20446f6573206e6f742061636365707420457468657265756d2060008301527f436f696e000000000000000000000000000000000000000000000000000000006020830152604082019050919050565b600061446b600e83615799565b91507f736c6963655f6f766572666c6f770000000000000000000000000000000000006000830152602082019050919050565b60006144ab601b83615799565b91507f4f6e6c79206d616e616765722063616e206578656375746520697400000000006000830152602082019050919050565b60006144eb603f83615799565b91507f5468697320636f6e7472616374206164647265737320646f6573206e6f74206860008301527f6176652073756666696369656e742062616c616e6365206f66206574686572006020830152604082019050919050565b6000614551601d83615799565b91507f4d6178206c656e677468206f66207369676e6174757265733a203937350000006000830152602082019050919050565b6000614591602483615799565b91507f4552524f523a204465746563746564207a65726f206164647265737320696e2060008301527f61646473000000000000000000000000000000000000000000000000000000006020830152604082019050919050565b60006145f7601683615799565b91507f446f206e6f7468696e6720627920796f757273656c66000000000000000000006000830152602082019050919050565b6000614637601283615799565b91507f4552524f523a205a65726f20616d6f756e7400000000000000000000000000006000830152602082019050919050565b6000614677601083615799565b91507f5369676e617475726573206572726f72000000000000000000000000000000006000830152602082019050919050565b60006146b7602783615799565b91507f457863656564656420746865206d6178696d756d206e756d626572206f66206d60008301527f616e6167657273000000000000000000000000000000000000000000000000006020830152604082019050919050565b600061471d600683615799565b91507f44656e69656400000000000000000000000000000000000000000000000000006000830152602082019050919050565b600061475d604483615799565b91507f5468657265206172652061646472657373657320696e2074686520657869746960008301527f6e672061646472657373206c697374207468617420617265206e6f74206d616e60208301527f61676572000000000000000000000000000000000000000000000000000000006040830152606082019050919050565b60006147e9602883615799565b91507f5769746864726177616c20616d6f756e74206d7573742062652067726561746560008301527f72207468616e20300000000000000000000000000000000000000000000000006020830152604082019050919050565b600061484f602283615799565b91507f4e6f20656e6f75676820616d6f756e7420666f7220617574686f72697a61746960008301527f6f6e0000000000000000000000000000000000000000000000000000000000006020830152604082019050919050565b60006148b5602383615799565b91507f4552524f523a207472616e7366657220746f20746865207a65726f206164647260008301527f65737300000000000000000000000000000000000000000000000000000000006020830152604082019050919050565b600061491b604083615799565b91507f5468652061646472657373206c6973742074686174206973206265696e67206160008301527f6464656420616c7265616479206578697374732061732061206d616e616765726020830152604082019050919050565b6000614981601e83615799565b91507f546869732061646472657373206973206e6f74207265676973746572656400006000830152602082019050919050565b60006149c1601e83615799565b91507f4e6f20656e6f7567682062616c616e6365206f662074686520746f6b656e00006000830152602082019050919050565b6000614a01601583615799565b91507f56616c6964207369676e617475726573206661696c00000000000000000000006000830152602082019050919050565b6000614a41602883615799565b91507f546865726520617265206e6f206d616e6167657273206a6f696e696e67206f7260008301527f2065786974696e670000000000000000000000000000000000000000000000006020830152604082019050919050565b6000614aa7601d83615799565b91507f496e636f6e73697374656e637920457468657265756d20616d6f756e740000006000830152602082019050919050565b6000614ae7601483615799565b91507f497420686173206265656e2075706772616465640000000000000000000000006000830152602082019050919050565b6000614b27601983615799565b91507f4669786564206c656e677468206f662074784b65793a203634000000000000006000830152602082019050919050565b6000614b67601d83615799565b91507f416464726573733a2063616c6c20746f206e6f6e2d636f6e74726163740000006000830152602082019050919050565b6000614ba7601183615799565b91507f736c6963655f6f75744f66426f756e64730000000000000000000000000000006000830152602082019050919050565b6000614be7601983615799565b91507f4f6e6c79206f776e65722063616e2065786563757465206974000000000000006000830152602082019050919050565b6000614c27602c83615799565b91507f4475706c696361746520706172616d657465727320666f72207468652061646460008301527f7265737320746f206578697400000000000000000000000000000000000000006020830152604082019050919050565b6000614c8d601783615799565b91507f43616e277420657869742073656564206d616e616765720000000000000000006000830152602082019050919050565b6000614ccd602a83615799565b91507f5361666545524332303a204552433230206f7065726174696f6e20646964206e60008301527f6f742073756363656564000000000000000000000000000000000000000000006020830152604082019050919050565b6000614d33602683615799565b91507f436f6e74726163742063726561746f722063616e6e6f7420616374206173206d60008301527f616e6167657200000000000000000000000000000000000000000000000000006020830152604082019050919050565b6000614d99602583615799565b91507f5468652061646472657373206973206e6f74206120636f6e747261637420616460008301527f64726573730000000000000000000000000000000000000000000000000000006020830152604082019050919050565b614dfb8161595b565b82525050565b614e12614e0d8261595b565b615aa5565b82525050565b614e2181615965565b82525050565b614e38614e3382615965565b615aaf565b82525050565b6000614e4a828461401f565b915081905092915050565b6000614e618284614089565b915081905092915050565b6000614e788289614089565b9150614e848288613ed3565b601482019150614e948287614e01565b602082019150614ea48286613ff9565b600182019150614eb48285613f17565b601482019150614ec48284614e27565b600182019150819050979650505050505050565b6000614ee48286614089565b9150614ef08285613f17565b601482019150614f008284614e27565b600182019150819050949350505050565b6000614f1d8288614089565b9150614f298287613f8c565b9150614f358286614e27565b600182019150614f458285613f8c565b9150614f518284614e27565b6001820191508190509695505050505050565b6000602082019050614f796000830184613ef9565b92915050565b6000604082019050614f946000830185613ec4565b614fa16020830184614df2565b9392505050565b6000604082019050614fbd6000830185613ef9565b614fca6020830184613ef9565b9392505050565b6000606082019050614fe66000830186613ef9565b614ff36020830185613ef9565b6150006040830184614df2565b949350505050565b600060808201905061501d6000830187613ef9565b818103602083015261502f8186614050565b905061503e6040830185614df2565b61504b6060830184613ef9565b95945050505050565b60006040820190506150696000830185613ef9565b6150766020830184614df2565b9392505050565b600060208201905081810360008301526150978184613f2e565b905092915050565b60006020820190506150b46000830184613fea565b92915050565b60006080820190506150cf6000830187614010565b6150dc6020830186614e18565b6150e96040830185614010565b6150f66060830184614010565b95945050505050565b600060208201905081810360008301526151198184614050565b905092915050565b6000602082019050818103600083015261513a816140ba565b9050919050565b6000602082019050818103600083015261515a81614120565b9050919050565b6000602082019050818103600083015261517a81614186565b9050919050565b6000602082019050818103600083015261519a816141ec565b9050919050565b600060208201905081810360008301526151ba8161422c565b9050919050565b600060208201905081810360008301526151da81614292565b9050919050565b600060208201905081810360008301526151fa816142d2565b9050919050565b6000602082019050818103600083015261521a81614312565b9050919050565b6000602082019050818103600083015261523a81614352565b9050919050565b6000602082019050818103600083015261525a81614392565b9050919050565b6000602082019050818103600083015261527a816143f8565b9050919050565b6000602082019050818103600083015261529a8161445e565b9050919050565b600060208201905081810360008301526152ba8161449e565b9050919050565b600060208201905081810360008301526152da816144de565b9050919050565b600060208201905081810360008301526152fa81614544565b9050919050565b6000602082019050818103600083015261531a81614584565b9050919050565b6000602082019050818103600083015261533a816145ea565b9050919050565b6000602082019050818103600083015261535a8161462a565b9050919050565b6000602082019050818103600083015261537a8161466a565b9050919050565b6000602082019050818103600083015261539a816146aa565b9050919050565b600060208201905081810360008301526153ba81614710565b9050919050565b600060208201905081810360008301526153da81614750565b9050919050565b600060208201905081810360008301526153fa816147dc565b9050919050565b6000602082019050818103600083015261541a81614842565b9050919050565b6000602082019050818103600083015261543a816148a8565b9050919050565b6000602082019050818103600083015261545a8161490e565b9050919050565b6000602082019050818103600083015261547a81614974565b9050919050565b6000602082019050818103600083015261549a816149b4565b9050919050565b600060208201905081810360008301526154ba816149f4565b9050919050565b600060208201905081810360008301526154da81614a34565b9050919050565b600060208201905081810360008301526154fa81614a9a565b9050919050565b6000602082019050818103600083015261551a81614ada565b9050919050565b6000602082019050818103600083015261553a81614b1a565b9050919050565b6000602082019050818103600083015261555a81614b5a565b9050919050565b6000602082019050818103600083015261557a81614b9a565b9050919050565b6000602082019050818103600083015261559a81614bda565b9050919050565b600060208201905081810360008301526155ba81614c1a565b9050919050565b600060208201905081810360008301526155da81614c80565b9050919050565b600060208201905081810360008301526155fa81614cc0565b9050919050565b6000602082019050818103600083015261561a81614d26565b9050919050565b6000602082019050818103600083015261563a81614d8c565b9050919050565b60006020820190506156566000830184614df2565b92915050565b60006020820190506156716000830184614e18565b92915050565b6000604051905081810181811067ffffffffffffffff8211171561569e5761569d615b1f565b5b8060405250919050565b600067ffffffffffffffff8211156156c3576156c2615b1f565b5b602082029050602081019050919050565b600067ffffffffffffffff8211156156ef576156ee615b1f565b5b601f19601f8301169050602081019050919050565b600067ffffffffffffffff82111561571f5761571e615b1f565b5b601f19601f8301169050602081019050919050565b6000819050602082019050919050565b600081519050919050565b600081519050919050565b600081519050919050565b6000602082019050919050565b600082825260208201905092915050565b600081905092915050565b600081905092915050565b600082825260208201905092915050565b600081905092915050565b60006157c08261595b565b91506157cb8361595b565b9250827fffffffffffffffffffffffffffffffffffffffffffffffffffffffffffffffff03821115615800576157ff615ac1565b5b828201905092915050565b600061581682615965565b915061582183615965565b92508260ff0382111561583757615836615ac1565b5b828201905092915050565b600061584d8261595b565b91506158588361595b565b92508261586857615867615af0565b5b828204905092915050565b600061587e8261595b565b91506158898361595b565b9250817fffffffffffffffffffffffffffffffffffffffffffffffffffffffffffffffff04831182151516156158c2576158c1615ac1565b5b828202905092915050565b60006158d88261595b565b91506158e38361595b565b9250828210156158f6576158f5615ac1565b5b828203905092915050565b600061590c8261593b565b9050919050565b600061591e8261593b565b9050919050565b60008115159050919050565b6000819050919050565b600073ffffffffffffffffffffffffffffffffffffffff82169050919050565b6000819050919050565b600060ff82169050919050565b600061597d82615984565b9050919050565b600061598f82615996565b9050919050565b60006159a18261593b565b9050919050565b82818337600083830152505050565b60005b838110156159d55780820151818401526020810190506159ba565b838111156159e4576000848401525b50505050565b60006159f58261595b565b91507fffffffffffffffffffffffffffffffffffffffffffffffffffffffffffffffff821415615a2857615a27615ac1565b5b600182019050919050565b6000615a3e82615965565b915060ff821415615a5257615a51615ac1565b5b600182019050919050565b6000615a6882615a93565b9050919050565b6000615a7a82615a93565b9050919050565b6000615a8c82615aaf565b9050919050565b6000615a9e82615b6c565b9050919050565b6000819050919050565b6000615aba82615b5f565b9050919050565b7f4e487b7100000000000000000000000000000000000000000000000000000000600052601160045260246000fd5b7f4e487b7100000000000000000000000000000000000000000000000000000000600052601260045260246000fd5b7f4e487b7100000000000000000000000000000000000000000000000000000000600052604160045260246000fd5b6000601f19601f8301169050919050565b60008160f81b9050919050565b60008160601b9050919050565b615b8281615901565b8114615b8d57600080fd5b50565b615b9981615913565b8114615ba457600080fd5b50565b615bb081615925565b8114615bbb57600080fd5b50565b615bc78161595b565b8114615bd257600080fd5b50565b615bde81615965565b8114615be957600080fd5b5056fea2646970667358221220477c98caef7539bc5daf2eecf9236d02ef318da38c9ad045977b7e65d3b142c864736f6c63430008000033",
  "immutableReferences": {},
  "source": "// SPDX-License-Identifier: MIT\n\npragma solidity ^0.8.0;\n\nimport \"./token/ERC20/IERC20.sol\";\nimport \"./token/ERC20/SafeERC20.sol\";\nimport \"./libs/SafeMath.sol\";\nimport \"./libs/Address.sol\";\nimport \"./libs/BytesLib.sol\";\n\ninterface IERC20Minter {\n    function mint(address to, uint256 amount) external;\n\n    function burn(uint256 amount) external;\n\n    function replaceMinter(address newMinter) external;\n}\n\ncontract PBridge {\n    using Address for address;\n    using SafeERC20 for IERC20;\n    using SafeMath for uint256;\n    using BytesLib for bytes;\n\n    modifier isOwner() {\n        require(owner == msg.sender, \"Only owner can execute it\");\n        _;\n    }\n    modifier isManager() {\n        require(managers[msg.sender] == 1, \"Only manager can execute it\");\n        _;\n    }\n    bool public upgrade = false;\n    address public upgradeContractAddress = address(0);\n    // \n    uint256 public max_managers = 15;\n    // \n    uint256 public min_managers = 3;\n    //  66%\n    uint256 public rate = 66;\n    // \n    uint256 public signatureLength = 65;\n    // \n    uint256 constant DENOMINATOR = 100;\n    // \n    uint8 constant VERSION = 2;\n    // \n    uint8 public current_min_signatures;\n    address public owner;\n    mapping(address => uint8) private seedManagers;\n    address[] private seedManagerArray;\n    mapping(address => uint8) private managers;\n    address[] private managerArray;\n    mapping(bytes32 => uint8) private completedKeccak256s;\n    mapping(string => uint8) private completedTxs;\n    mapping(address => uint8) private minterERC20s;\n\n    constructor(address[] memory _managers) public {\n        require(\n            _managers.length <= max_managers,\n            \"Exceeded the maximum number of managers\"\n        );\n        require(\n            _managers.length >= min_managers,\n            \"Not reaching the min number of managers\"\n        );\n        owner = msg.sender;\n        managerArray = _managers;\n        for (uint8 i = 0; i < managerArray.length; i++) {\n            managers[managerArray[i]] = 1;\n            seedManagers[managerArray[i]] = 1;\n            seedManagerArray.push(managerArray[i]);\n        }\n        require(managers[owner] == 0, \"Contract creator cannot act as manager\");\n        // \n        current_min_signatures = calMinSignatures(managerArray.length);\n    }\n\n    // function() external payable {\n    //     emit DepositFunds(msg.sender, msg.value);\n    // }\n    fallback() external payable {}\n\n    receive() external payable {\n        emit DepositFunds(msg.sender, msg.value);\n    }\n\n    function createOrSignWithdraw(\n        string memory txKey,\n        address payable to,\n        uint256 amount,\n        bool isERC20,\n        address ERC20,\n        bytes memory signatures\n    ) public isManager {\n        require(bytes(txKey).length == 64, \"Fixed length of txKey: 64\");\n        require(to != address(0), \"Withdraw: transfer to the zero address\");\n        require(amount > 0, \"Withdrawal amount must be greater than 0\");\n        // \n        require(completedTxs[txKey] == 0, \"Transaction has been completed\");\n        // \n        if (isERC20) {\n            validateTransferERC20(ERC20, to, amount);\n        } else {\n            require(\n                address(this).balance >= amount,\n                \"This contract address does not have sufficient balance of ether\"\n            );\n        }\n        bytes32 vHash = keccak256(\n            abi.encodePacked(txKey, to, amount, isERC20, ERC20, VERSION)\n        );\n        // \n        require(completedKeccak256s[vHash] == 0, \"Invalid signatures\");\n        // \n        require(validSignature(vHash, signatures), \"Valid signatures fail\");\n        // \n        if (isERC20) {\n            transferERC20(ERC20, to, amount);\n        } else {\n            // \n            require(\n                address(this).balance >= amount,\n                \"This contract address does not have sufficient balance of ether\"\n            );\n            to.transfer(amount);\n            emit TransferFunds(to, amount);\n        }\n        // \n        completeTx(txKey, vHash, 1);\n        emit TxWithdrawCompleted(txKey);\n    }\n\n    function createOrSignManagerChange(\n        string memory txKey,\n        address[] memory adds,\n        address[] memory removes,\n        uint8 count,\n        bytes memory signatures\n    ) public isManager {\n        require(bytes(txKey).length == 64, \"Fixed length of txKey: 64\");\n        require(\n            adds.length > 0 || removes.length > 0,\n            \"There are no managers joining or exiting\"\n        );\n        // \n        require(completedTxs[txKey] == 0, \"Transaction has been completed\");\n        preValidateAddsAndRemoves(adds, removes);\n        bytes32 vHash = keccak256(\n            abi.encodePacked(txKey, adds, count, removes, VERSION)\n        );\n        // \n        require(completedKeccak256s[vHash] == 0, \"Invalid signatures\");\n        // \n        require(validSignature(vHash, signatures), \"Valid signatures fail\");\n        // \n        removeManager(removes);\n        addManager(adds);\n        // \n        current_min_signatures = calMinSignatures(managerArray.length);\n        // \n        completeTx(txKey, vHash, 1);\n        // add event\n        emit TxManagerChangeCompleted(txKey);\n    }\n\n    function createOrSignUpgrade(\n        string memory txKey,\n        address upgradeContract,\n        bytes memory signatures\n    ) public isManager {\n        require(bytes(txKey).length == 64, \"Fixed length of txKey: 64\");\n        // \n        require(completedTxs[txKey] == 0, \"Transaction has been completed\");\n        require(!upgrade, \"It has been upgraded\");\n        require(\n            upgradeContract.isContract(),\n            \"The address is not a contract address\"\n        );\n        // \n        bytes32 vHash = keccak256(\n            abi.encodePacked(txKey, upgradeContract, VERSION)\n        );\n        // \n        require(completedKeccak256s[vHash] == 0, \"Invalid signatures\");\n        // \n        require(validSignature(vHash, signatures), \"Valid signatures fail\");\n        // \n        upgrade = true;\n        upgradeContractAddress = upgradeContract;\n        // \n        completeTx(txKey, vHash, 1);\n        // add event\n        emit TxUpgradeCompleted(txKey);\n    }\n\n    function validSignature(bytes32 hash, bytes memory signatures)\n        internal\n        view\n        returns (bool)\n    {\n        require(signatures.length <= 975, \"Max length of signatures: 975\");\n        // ,\n        uint256 sManagersCount = getManagerFromSignatures(hash, signatures);\n        // \n        return sManagersCount >= current_min_signatures;\n    }\n\n    function getManagerFromSignatures(bytes32 hash, bytes memory signatures)\n        internal\n        view\n        returns (uint256)\n    {\n        uint256 signCount = 0;\n        uint256 times = signatures.length.div(signatureLength);\n        address[] memory result = new address[](times);\n        uint256 k = 0;\n        uint8 j = 0;\n        for (uint256 i = 0; i < times; i++) {\n            bytes memory sign = signatures.slice(k, signatureLength);\n            address mAddress = ecrecovery(hash, sign);\n            require(mAddress != address(0), \"Signatures error\");\n            // \n            if (managers[mAddress] == 1) {\n                signCount++;\n                result[j++] = mAddress;\n            }\n            k += signatureLength;\n        }\n        // \n        bool suc = repeatability(result);\n        delete result;\n        require(suc, \"Signatures duplicate\");\n        return signCount;\n    }\n\n    function validateRepeatability(\n        address currentAddress,\n        address[] memory list\n    ) internal pure returns (bool) {\n        address tempAddress;\n        for (uint256 i = 0; i < list.length; i++) {\n            tempAddress = list[i];\n            if (tempAddress == address(0)) {\n                break;\n            }\n            if (tempAddress == currentAddress) {\n                return false;\n            }\n        }\n        return true;\n    }\n\n    function repeatability(address[] memory list) internal pure returns (bool) {\n        for (uint256 i = 0; i < list.length; i++) {\n            address address1 = list[i];\n            if (address1 == address(0)) {\n                break;\n            }\n            for (uint256 j = i + 1; j < list.length; j++) {\n                address address2 = list[j];\n                if (address2 == address(0)) {\n                    break;\n                }\n                if (address1 == address2) {\n                    return false;\n                }\n            }\n        }\n        return true;\n    }\n\n    function ecrecovery(bytes32 hash, bytes memory sig)\n        internal\n        view\n        returns (address)\n    {\n        bytes32 r;\n        bytes32 s;\n        uint8 v;\n        if (sig.length != signatureLength) {\n            return address(0);\n        }\n        assembly {\n            r := mload(add(sig, 32))\n            s := mload(add(sig, 64))\n            v := byte(0, mload(add(sig, 96)))\n        }\n        if (\n            uint256(s) >\n            0x7FFFFFFFFFFFFFFFFFFFFFFFFFFFFFFF5D576E7357A4501DDFE92F46681B20A0\n        ) {\n            return address(0);\n        }\n        // https://github.com/ethereum/go-ethereum/issues/2053\n        if (v < 27) {\n            v += 27;\n        }\n        if (v != 27 && v != 28) {\n            return address(0);\n        }\n        return ecrecover(hash, v, r, s);\n    }\n\n    function preValidateAddsAndRemoves(\n        address[] memory adds,\n        address[] memory removes\n    ) internal view {\n        // adds\n        uint256 addLen = adds.length;\n        for (uint256 i = 0; i < addLen; i++) {\n            address add = adds[i];\n            require(add != address(0), \"ERROR: Detected zero address in adds\");\n            require(\n                managers[add] == 0,\n                \"The address list that is being added already exists as a manager\"\n            );\n        }\n        require(\n            repeatability(adds),\n            \"Duplicate parameters for the address to join\"\n        );\n        // \n        require(\n            validateRepeatability(owner, adds),\n            \"Contract creator cannot act as manager\"\n        );\n        // removes\n        require(\n            repeatability(removes),\n            \"Duplicate parameters for the address to exit\"\n        );\n        uint256 removeLen = removes.length;\n        for (uint256 i = 0; i < removeLen; i++) {\n            address remove = removes[i];\n            require(seedManagers[remove] == 0, \"Can't exit seed manager\");\n            require(\n                managers[remove] == 1,\n                \"There are addresses in the exiting address list that are not manager\"\n            );\n        }\n        require(\n            managerArray.length + adds.length - removes.length <= max_managers,\n            \"Exceeded the maximum number of managers\"\n        );\n    }\n\n    /*\n      ``  `` \n    */\n    function calMinSignatures(uint256 managerCounts)\n        internal\n        view\n        returns (uint8)\n    {\n        require(managerCounts > 0, \"Manager Can't empty.\");\n        uint256 numerator = rate * managerCounts + DENOMINATOR - 1;\n        return uint8(numerator / DENOMINATOR);\n    }\n\n    function removeManager(address[] memory removes) internal {\n        if (removes.length == 0) {\n            return;\n        }\n        for (uint256 i = 0; i < removes.length; i++) {\n            delete managers[removes[i]];\n        }\n        // \n        for (uint256 i = 0; i < managerArray.length; i++) {\n            if (managers[managerArray[i]] == 0) {\n                delete managerArray[i];\n            }\n        }\n        uint256 tempIndex = 0x10;\n        for (uint256 i = 0; i < managerArray.length; i++) {\n            address temp = managerArray[i];\n            if (temp == address(0)) {\n                if (tempIndex == 0x10) tempIndex = i;\n                continue;\n            } else if (tempIndex != 0x10) {\n                managerArray[tempIndex] = temp;\n                tempIndex++;\n            }\n        }\n        // managerArray.length -= removes.length;\n    }\n\n    function addManager(address[] memory adds) internal {\n        if (adds.length == 0) {\n            return;\n        }\n        for (uint256 i = 0; i < adds.length; i++) {\n            address add = adds[i];\n            if (managers[add] == 0) {\n                managers[add] = 1;\n                managerArray.push(add);\n            }\n        }\n    }\n\n    function completeTx(\n        string memory txKey,\n        bytes32 keccak256Hash,\n        uint8 e\n    ) internal {\n        completedTxs[txKey] = e;\n        completedKeccak256s[keccak256Hash] = e;\n    }\n\n    function validateTransferERC20(\n        address ERC20,\n        address to,\n        uint256 amount\n    ) internal view {\n        require(to != address(0), \"ERC20: transfer to the zero address\");\n        require(address(this) != ERC20, \"Do nothing by yourself\");\n        require(ERC20.isContract(), \"The address is not a contract address\");\n        if (isMinterERC20(ERC20)) {\n            // ERC20\n            return;\n        }\n        IERC20 token = IERC20(ERC20);\n        uint256 balance = token.balanceOf(address(this));\n        require(balance >= amount, \"No enough balance of token\");\n    }\n\n    function transferERC20(\n        address ERC20,\n        address to,\n        uint256 amount\n    ) internal {\n        if (isMinterERC20(ERC20)) {\n            // ERC20\n            IERC20Minter minterToken = IERC20Minter(ERC20);\n            minterToken.mint(to, amount);\n            return;\n        }\n        IERC20 token = IERC20(ERC20);\n        uint256 balance = token.balanceOf(address(this));\n        require(balance >= amount, \"No enough balance of token\");\n        token.safeTransfer(to, amount);\n    }\n\n    function closeUpgrade() public isOwner {\n        require(upgrade, \"Denied\");\n        upgrade = false;\n    }\n\n    function upgradeContractS1() public isOwner {\n        require(upgrade, \"Denied\");\n        require(\n            upgradeContractAddress != address(0),\n            \"ERROR: transfer to the zero address\"\n        );\n        payable(address(uint160(upgradeContractAddress))).transfer(\n            address(this).balance\n        );\n    }\n\n    function upgradeContractS2(address ERC20) public isOwner {\n        require(upgrade, \"Denied\");\n        require(\n            upgradeContractAddress != address(0),\n            \"ERROR: transfer to the zero address\"\n        );\n        require(address(this) != ERC20, \"Do nothing by yourself\");\n        require(ERC20.isContract(), \"The address is not a contract address\");\n        IERC20 token = IERC20(ERC20);\n        uint256 balance = token.balanceOf(address(this));\n        require(balance >= 0, \"No enough balance of token\");\n        token.safeTransfer(upgradeContractAddress, balance);\n        if (isMinterERC20(ERC20)) {\n            // ERC20\n            IERC20Minter minterToken = IERC20Minter(ERC20);\n            minterToken.replaceMinter(upgradeContractAddress);\n        }\n    }\n\n    // ERC20\n    function isMinterERC20(address ERC20) public view returns (bool) {\n        return minterERC20s[ERC20] > 0;\n    }\n\n    // ERC20\n    function registerMinterERC20(address ERC20) public isOwner {\n        require(address(this) != ERC20, \"Do nothing by yourself\");\n        require(ERC20.isContract(), \"The address is not a contract address\");\n        require(\n            !isMinterERC20(ERC20),\n            \"This address has already been registered\"\n        );\n        minterERC20s[ERC20] = 1;\n    }\n\n    // ERC20\n    function unregisterMinterERC20(address ERC20) public isOwner {\n        require(isMinterERC20(ERC20), \"This address is not registered\");\n        delete minterERC20s[ERC20];\n    }\n\n    // eth(ETH or ERC20)\n    function crossOut(\n        string memory to,\n        uint256 amount,\n        address ERC20\n    ) public payable returns (bool) {\n        address from = msg.sender;\n        require(amount > 0, \"ERROR: Zero amount\");\n        if (ERC20 != address(0)) {\n            require(msg.value == 0, \"ERC20: Does not accept Ethereum Coin\");\n            require(\n                ERC20.isContract(),\n                \"The address is not a contract address\"\n            );\n            IERC20 token = IERC20(ERC20);\n            uint256 allowance = token.allowance(from, address(this));\n            require(allowance >= amount, \"No enough amount for authorization\");\n            uint256 fromBalance = token.balanceOf(from);\n            require(fromBalance >= amount, \"No enough balance of the token\");\n            token.safeTransferFrom(from, address(this), amount);\n            if (isMinterERC20(ERC20)) {\n                // ERC20token\n                IERC20Minter minterToken = IERC20Minter(ERC20);\n                minterToken.burn(amount);\n            }\n        } else {\n            require(msg.value == amount, \"Inconsistency Ethereum amount\");\n        }\n        emit CrossOutFunds(from, to, amount, ERC20);\n        return true;\n    }\n\n    function isCompletedTx(string memory txKey) public view returns (bool) {\n        return completedTxs[txKey] > 0;\n    }\n\n    function ifManager(address _manager) public view returns (bool) {\n        return managers[_manager] == 1;\n    }\n\n    function allManagers() public view returns (address[] memory) {\n        return managerArray;\n    }\n\n    event DepositFunds(address from, uint256 amount);\n    event CrossOutFunds(address from, string to, uint256 amount, address ERC20);\n    event TransferFunds(address to, uint256 amount);\n    event TxWithdrawCompleted(string txKey);\n    event TxManagerChangeCompleted(string txKey);\n    event TxUpgradeCompleted(string txKey);\n}\n",
  "sourcePath": "/Users/terry/go/src/github.com/terry108/cross-chain-contract/contracts/PBridge.sol",
  "compiler": {
    "name": "solc",
    "version": "0.8.0+commit.c7dfd78e.Emscripten.clang"
  },
  "schemaVersion": "3.4.1",
  "updatedAt": "2021-08-23T08:57:03.754Z",
  "networkType": "ethereum",
  "devdoc": {
    "kind": "dev",
    "methods": {},
    "version": 1
  },
  "userdoc": {
    "kind": "user",
    "methods": {},
    "version": 1
  }
}